{
  "address": "0x2A08a865e3e9667e58abFCCfDee2689CBF38d320",
  "abi": [
    {
      "inputs": [],
      "stateMutability": "nonpayable",
      "type": "constructor"
    },
    {
      "inputs": [],
      "name": "ChannelAlreadyCreated",
      "type": "error"
    },
    {
      "inputs": [],
      "name": "FailToSendETH",
      "type": "error"
    },
    {
      "inputs": [],
      "name": "NoChannel",
      "type": "error"
    },
    {
      "inputs": [],
      "name": "NoClosingChannel",
      "type": "error"
    },
    {
      "inputs": [],
      "name": "NotEnoughBalance",
      "type": "error"
    },
    {
      "inputs": [],
      "name": "NotTimeYet",
      "type": "error"
    },
    {
      "inputs": [
        {
          "internalType": "address",
          "name": "owner",
          "type": "address"
        }
      ],
      "name": "OwnableInvalidOwner",
      "type": "error"
    },
    {
      "inputs": [
        {
          "internalType": "address",
          "name": "account",
          "type": "address"
        }
      ],
      "name": "OwnableUnauthorizedAccount",
      "type": "error"
    },
    {
      "inputs": [],
      "name": "RedundantWithdrawal",
      "type": "error"
    },
    {
      "anonymous": false,
      "inputs": [
        {
          "indexed": false,
          "internalType": "address",
          "name": "",
          "type": "address"
        }
      ],
      "name": "Challenged",
      "type": "event"
    },
    {
      "anonymous": false,
      "inputs": [
        {
          "indexed": false,
          "internalType": "address",
          "name": "",
          "type": "address"
        }
      ],
      "name": "Closed",
      "type": "event"
    },
    {
      "anonymous": false,
      "inputs": [
        {
          "indexed": false,
          "internalType": "address",
          "name": "",
          "type": "address"
        },
        {
          "indexed": false,
          "internalType": "uint256",
          "name": "",
          "type": "uint256"
        }
      ],
      "name": "Opened",
      "type": "event"
    },
    {
      "anonymous": false,
      "inputs": [
        {
          "indexed": true,
          "internalType": "address",
          "name": "previousOwner",
          "type": "address"
        },
        {
          "indexed": true,
          "internalType": "address",
          "name": "newOwner",
          "type": "address"
        }
      ],
      "name": "OwnershipTransferred",
      "type": "event"
    },
    {
      "anonymous": false,
      "inputs": [
        {
          "indexed": false,
          "internalType": "address",
          "name": "",
          "type": "address"
        },
        {
          "indexed": false,
          "internalType": "uint256",
          "name": "",
          "type": "uint256"
        }
      ],
      "name": "Withdrawn",
      "type": "event"
    },
    {
      "inputs": [],
      "name": "challengeChannel",
      "outputs": [],
      "stateMutability": "nonpayable",
      "type": "function"
    },
    {
      "inputs": [],
      "name": "defundChannel",
      "outputs": [],
      "stateMutability": "nonpayable",
      "type": "function"
    },
    {
      "inputs": [],
      "name": "fundChannel",
      "outputs": [],
      "stateMutability": "payable",
      "type": "function"
    },
    {
      "inputs": [],
      "name": "owner",
      "outputs": [
        {
          "internalType": "address",
          "name": "",
          "type": "address"
        }
      ],
      "stateMutability": "view",
      "type": "function"
    },
    {
      "inputs": [],
      "name": "renounceOwnership",
      "outputs": [],
      "stateMutability": "nonpayable",
      "type": "function"
    },
    {
      "inputs": [
        {
          "internalType": "address",
          "name": "channel",
          "type": "address"
        }
      ],
      "name": "timeLeft",
      "outputs": [
        {
          "internalType": "uint256",
          "name": "",
          "type": "uint256"
        }
      ],
      "stateMutability": "view",
      "type": "function"
    },
    {
      "inputs": [
        {
          "internalType": "address",
          "name": "newOwner",
          "type": "address"
        }
      ],
      "name": "transferOwnership",
      "outputs": [],
      "stateMutability": "nonpayable",
      "type": "function"
    },
    {
      "inputs": [
        {
          "components": [
            {
              "internalType": "uint256",
              "name": "updatedBalance",
              "type": "uint256"
            },
            {
              "components": [
                {
                  "internalType": "bytes32",
                  "name": "r",
                  "type": "bytes32"
                },
                {
                  "internalType": "bytes32",
                  "name": "s",
                  "type": "bytes32"
                },
                {
                  "internalType": "uint8",
                  "name": "v",
                  "type": "uint8"
                }
              ],
              "internalType": "struct Streamer.Signature",
              "name": "sig",
              "type": "tuple"
            }
          ],
          "internalType": "struct Streamer.Voucher",
          "name": "voucher",
          "type": "tuple"
        }
      ],
      "name": "withdrawEarnings",
      "outputs": [],
      "stateMutability": "nonpayable",
      "type": "function"
    }
  ],
  "transactionHash": "0xc603eac93d1ea7a94e05249dbb1de498155829b997285ca651d478605a213f86",
  "args": [],
  "numDeployments": 1,
  "solcInputHash": "e195bc8a85372bfa6f64465aaa916123",
  "bytecode": "0x608060405234801561001057600080fd5b50338061003757604051631e4fbdf760e01b81526000600482015260240160405180910390fd5b61004081610046565b50610096565b600080546001600160a01b038381166001600160a01b0319831681178455604051919092169283917f8be0079c531659141344cd1fd0a4f28419497f9722a3daafe3b4186f6b6457e09190a35050565b6107d7806100a56000396000f3fe60806040526004361061007b5760003560e01c806388a025661161004e57806388a02566146100e75780638da5cb5b14610107578063bc8641b11461012f578063f2fde38b1461014457600080fd5b8063157f83ad146100805780631e400d601461008a578063405c649c1461009f578063715018a6146100d2575b600080fd5b610088610164565b005b34801561009657600080fd5b506100886101e1565b3480156100ab57600080fd5b506100bf6100ba3660046106fa565b6102f2565b6040519081526020015b60405180910390f35b3480156100de57600080fd5b50610088610365565b3480156100f357600080fd5b5061008861010236600461072a565b610379565b34801561011357600080fd5b506000546040516001600160a01b0390911681526020016100c9565b34801561013b57600080fd5b506100886105bd565b34801561015057600080fd5b5061008861015f3660046106fa565b61063a565b336000908152600160205260409020541561019257604051631f6206e560e01b815260040160405180910390fd5b3360008181526001602090815260409182902034908190558251938452908301527fc4b27f09c64550fd678a5b3c3a00f454814732e346e0f1c79d0add8f980346de91015b60405180910390a1565b33600090815260026020526040812054900361021057604051636a384f9960e01b815260040160405180910390fd5b33600090815260026020526040902054421161023f57604051635a39b02f60e11b815260040160405180910390fd5b33600081815260016020526040808220805490839055905190929083908381818185875af1925050503d8060008114610294576040519150601f19603f3d011682016040523d82523d6000602084013e610299565b606091505b50509050806102bb57604051630dd113f360e21b815260040160405180910390fd5b6040513381527f13607bf9d2dd20e1f3a7daf47ab12856f8aad65e6ae7e2c75ace3d0c424a40e89060200160405180910390a15050565b6001600160a01b038116600090815260026020526040812054158061032e57506001600160a01b03821660009081526002602052604090205442115b1561033b57506000919050565b6001600160a01b03821660009081526002602052604090205461035f904290610758565b92915050565b61036d61067d565b61037760006106aa565b565b60408051823560208083019190915282518083038201815282840190935282519201919091207f19457468657265756d205369676e6564204d6573736167653a0a3332000000006060830152607c820181905290600090609c0160408051601f19818403018152919052805160208201209091506000600182610402608088016060890161076b565b604080516000815260208082018084529490945260ff9092168282015291880135606082015290870135608082015260a0016020604051602081039080840390855afa158015610456573d6000803e3d6000fd5b505060408051601f1901516001600160a01b0381166000908152600160205291909120549092509050853581036104a05760405163bd524bab60e01b815260040160405180910390fd5b85358110156104c25760405163569d45cf60e11b815260040160405180910390fd5b60006104cf873583610758565b6001600160a01b0384166000908152600160205260408120893590559091506105006000546001600160a01b031690565b6001600160a01b03168260405160006040518083038185875af1925050503d806000811461054a576040519150601f19603f3d011682016040523d82523d6000602084013e61054f565b606091505b505090508061057157604051630dd113f360e21b815260040160405180910390fd5b604080516001600160a01b0386168152602081018490527f7084f5476618d8e60b11ef0d7d3f06914655adb8793e28ff7f018d4c76d505d5910160405180910390a15050505050505050565b3360009081526001602052604081205490036105ec5760405163078226dd60e51b815260040160405180910390fd5b6105f742601e61078e565b3360008181526002602090815260409182902093909355519081527f98027b38153f995c4b802a5c7e6365bee3addb25af6b29818c0c304684d8052c91016101d7565b61064261067d565b6001600160a01b03811661067157604051631e4fbdf760e01b8152600060048201526024015b60405180910390fd5b61067a816106aa565b50565b6000546001600160a01b031633146103775760405163118cdaa760e01b8152336004820152602401610668565b600080546001600160a01b038381166001600160a01b0319831681178455604051919092169283917f8be0079c531659141344cd1fd0a4f28419497f9722a3daafe3b4186f6b6457e09190a35050565b60006020828403121561070c57600080fd5b81356001600160a01b038116811461072357600080fd5b9392505050565b60006080828403121561073c57600080fd5b50919050565b634e487b7160e01b600052601160045260246000fd5b8181038181111561035f5761035f610742565b60006020828403121561077d57600080fd5b813560ff8116811461072357600080fd5b8082018082111561035f5761035f61074256fea26469706673582212201b84d3ecedad5e0a561e02e22526deb8626cd79c8fa8a878e62c8b9e1849e72064736f6c63430008140033",
  "devdoc": {
    "errors": {
      "OwnableInvalidOwner(address)": [
        {
          "details": "The owner is not a valid owner account. (eg. `address(0)`)"
        }
      ],
      "OwnableUnauthorizedAccount(address)": [
        {
          "details": "The caller account is not authorized to perform an operation."
        }
      ]
    },
    "kind": "dev",
    "methods": {
      "owner()": {
        "details": "Returns the address of the current owner."
      },
      "renounceOwnership()": {
        "details": "Leaves the contract without owner. It will not be possible to call `onlyOwner` functions. Can only be called by the current owner. NOTE: Renouncing ownership will leave the contract without an owner, thereby disabling any functionality that is only available to the owner."
      },
      "transferOwnership(address)": {
        "details": "Transfers ownership of the contract to a new account (`newOwner`). Can only be called by the current owner."
      }
    },
    "version": 1
  },
  "userdoc": {
    "kind": "user",
    "methods": {},
    "version": 1
  },
  "storageLayout": {
    "storage": [
      {
        "astId": 8,
        "contract": "contracts/Streamer.sol:Streamer",
        "label": "_owner",
        "offset": 0,
        "slot": "0",
        "type": "t_address"
      },
      {
        "astId": 220,
        "contract": "contracts/Streamer.sol:Streamer",
        "label": "balances",
        "offset": 0,
        "slot": "1",
        "type": "t_mapping(t_address,t_uint256)"
      },
      {
        "astId": 224,
        "contract": "contracts/Streamer.sol:Streamer",
        "label": "canCloseAt",
        "offset": 0,
        "slot": "2",
        "type": "t_mapping(t_address,t_uint256)"
      }
    ],
    "types": {
      "t_address": {
        "encoding": "inplace",
        "label": "address",
        "numberOfBytes": "20"
      },
      "t_mapping(t_address,t_uint256)": {
        "encoding": "mapping",
        "key": "t_address",
        "label": "mapping(address => uint256)",
        "numberOfBytes": "32",
        "value": "t_uint256"
      },
      "t_uint256": {
        "encoding": "inplace",
        "label": "uint256",
        "numberOfBytes": "32"
      }
    }
  }
}